:04000000FEEF7FF0A0
:10D7F200010E1200050E1200020E1200010E12009E
:10D8020002019A9F120002019799120002019A9551
:10D8120012000201949D12000201948D1200020175
:10D822008A5112000201959D12000201958D12008B
:10D832000201949B120002018C511200000E02019F
:10D842009A6F120013EC6CF0030E120013EC6CF0E2
:10D85200040E120016EC6CF0090E1200000E4EECD3
:10D862006EF012000201949F9985948F1200016E4E
:10D87200610004F48BF212005794000E566E0F0EE4
:10D8820012000201949F000E9A6F99851200535064
:10D8920063EC6CF0A0EC6DF0120016EC6CF019EC7D
:10D8A2006CF03DEC6CF0120033EC6CF05794000E0F
:10D8B200566E0F0E120033EC6CF05794020E566E39
:10D8C2000F0E1200016E610004F48CF2000E0201D0
:10D8D2008D6F120002EC6DF077EC6DF0F7EC6EF0EC
:10D8E200F4EC6CF012005750FC0B0209576E5050CA
:10D8F200502438EC6CF0030E120002019ABF84EF40
:10D902006CF087EF6CF0010E88EF6CF0000E1200E5
:10D91200020197B98FEF6CF092EF6CF0010E93EF6A
:10D922006CF0000E120002019AB59AEF6CF09DEFB6
:10D932006CF0010E9EEF6CF0000E1200020199B124
:10D94200A5EF6CF0A8EF6CF0010EA9EF6CF0000EE1
:10D952001200020195BBB0EF6CF0B3EF6CF0010E58
:10D96200B4EF6CF0000E1200020199BBBBEF6CF039
:10D97200BEEF6CF0010EBFEF6CF0000E120006C598
:10D9820001F507C502F508C503F509C504F5000E42
:10D9920007EC70F0120006C501F507C502F508C5CF
:10D9A20003F509C504F5020E07EC70F01200AF94FE
:10D9B200AF96AF90AF9202019B919B959B9F9B9DCF
:10D9C2009B939793979597911200ECEF6CF09DECD7
:10D9D2006EF092EC6FF057B4F1EF6CF0F3EF6CF085
:10D9E200E8EF6CF01200600E0001AD6F000EAF6F39
:10D9F200000EB36F080EB16F000EB06F000EAC6F69
:10DA02001200000E0001636F000E646F000E656F5E
:10DA1200000E666F000E676F000E686F12006BECEF
:10DA22006CF06EEC71F0B50E016EFD0E026E48ECFC
:10DA320070F01AEF6DF0FEEF7FF0000E016E110E26
:10DA4200026E000E046E000E036E040E066E000ED1
:10DA5200056E13EC73F0120057A832EF6DF034EF3D
:10DA62006DF03DEF6DF001C551F502C552F503C5EC
:10DA720053F504C554F5579812001B6E000E1C6E28
:10DA82001BC51DF51C0E166E050E176E000E196EC7
:10DA9200020E186E3C0ECAEC6EF0120019EC6CF01D
:10DAA2001CEC6CF00009D8B459EF6DF05BEF6DF02F
:10DAB20061EF6DF0000E63EC6CF0000E38EC6CF070
:10DAC200000E1200020194BF69EF6DF06BEF6DF072
:10DAD20076EF6DF0000E9A6F000E9B6F000E976F3F
:10DAE200000E8C6F000E8D6F948F1200040E0201D7
:10DAF200946F800E956F180E966F030E9E6F000E38
:10DB02009A6F000E9B6F000E976F000E8C6F000EC7
:10DB12008D6F1200010E016E57B492EF6DF094EF0B
:10DB22006DF09EEF6DF0579650681FEC6CF0D8ECDC
:10DB32006CF042EC6CF056C501F5015012005750E2
:10DB4200FC0B0209576E53045410D8A4ABEF6DF0CE
:10DB5200ADEF6DF0AFEF6DF020EC71F0D880503486
:10DB620038EC6CF0040E12000AC501F50BC502F583
:10DB7200000E046E020E036E2DEC6DF0000E066EAA
:10DB8200000E076E000E086E000E096EC0EC6CF0FF
:10DB9200040E12000AC501F50BC502F5000E046E53
:10DBA200010E036E2DEC6DF0000E066E000E076E78
:10DBB200000E086E000E096EC0EC6CF0020E120030
:10DBC2000AC501F50BC502F5000E046E020E036EC6
:10DBD2002DEC6DF0000E066E000E076E000E086E44
:10DBE200000E096EC0EC6CF0020E12000AC501F5BF
:10DBF2000BC502F5000E046E010E036E2DEC6DF0E6
:10DC0200000E066E000E076E000E086E000E096E04
:10DC1200C0EC6CF0040E1200B60EF66EE70EF76E54
:10DC2200000EF86E04EE00F111EE00F00900F5C4EA
:10DC3200EEF4E550E150FAE1E250F8E101EE34F1A0
:10DC42002B0EEE6AE806FDE1000110EF6DF020EE0A
:10DC520002F00A50D9260B50DA22610078F301F55E
:10DC6200610074F302F5610028F4D9F461002CF428
:10DC7200DAF4610078F303F5610074F304F52DEC36
:10DC82006DF0000E066E000E076E000E086E000E9E
:10DC9200096EC0EC6CF0020E1200146E010E156ECD
:10DCA20057B456EF6EF058EF6EF072EF6EF0578485
:10DCB200000E156E535063EC6CF01450D8B464EF40
:10DCC2006EF066EF6EF06CEF6EF0040E556EA0EC27
:10DCD2006DF070EF6EF0030E556E74EC6CF0E6ECC6
:10DCE2006CF0155012007EEC6CF00009D8B47CEF99
:10DCF2006EF07EEF6EF082EF6EF001EC6CF09CEF56
:10DD02006EF094EC6CF00009D8B48AEF6EF08CEFF0
:10DD12006EF090EF6EF007EC6CF09CEF6EF089EC19
:10DD22006CF00009D8B498EF6EF09AEF6EF09CEFA9
:10DD32006EF004EC6CF01200BAA2A2EF6EF0A4EF47
:10DD42006EF0A6EF6EF0C9EF6EF0BAA0ABEF6EF018
:10DD5200ADEF6EF0AFEF6EF0C9EF6EF002019AA573
:10DD6200B5EF6EF0B7EF6EF0B9EF6EF0C9EF6EF08F
:10DD72009AAFBEEF6EF0C0EF6EF0C2EF6EF0C9EF79
:10DD82006EF097A9C7EF6EF0C9EF6EF09DEF6EF0DF
:10DD920012001A6E1A508DEC70F00009D8B4D4EF4C
:10DDA2006EF0D6EF6EF0CBEF6EF016C501F517C52B
:10DDB20002F518C503F519C504F52DEC6DF0000E3A
:10DDC200066E000E076E000E086E000E096ECCEC99
:10DDD2006CF02FEC6CF08BEC6DF0E806D8B4F4EF3D
:10DDE2006EF0F6EF6EF0ECEF6EF01200000EBE6E0B
:10DDF200000EBF6E000EC06E0F0EC66EF00EC76E26
:10DE0200C86804011069F00E086F070E006F000E5B
:10DE1200096F000E016F000E116F300E026F500E6F
:10DE22000A6F000E126F370E036FF00E0B6F13693D
:10DE32003F0E046FF00E0C6F1469040E0201706F36
:10DE4200220E056F210E066F050E716F1200FC0E79
:10DE52005716020E566E579436EF6FF0FFEC6BF0CA
:10DE62005AEF6FF00F0E5AEF6FF044C50AF545C531
:10DE72000BF502D846EF6FF00500FA6E3850FD6ED2
:10DE82003950FE6EFF6AFA5012000C6E0D6A0D5088
:10DE9200000AD8B44FEF6FF033EF6FF00C50020A64
:10DEA200D8B42FEF6FF0010AD8B42FEF6FF033EF31
:10DEB2006FF012001FEC6CF0020E566E6DEF6FF0F9
:10DEC20048EC6CF091EF6FF0FDEC6BF091EF6FF0BE
:10DED20055EC6CF091EF6FF042C50AF543C50BF5B6
:10DEE20002D87DEF6FF00500FA6E3650FD6E3750A6
:10DEF200FE6EFF6AFA5012000C6E0D6A0D50000A97
:10DF0200D8B486EF6FF069EF6FF00C50020AD8B404
:10DF120061EF6FF0010AD8B465EF6FF069EF6FF04F
:10DF2200120074EC6EF05750030B0009D8B49CEF4A
:10DF32006FF09EEF6FF0AAEF6FF0AAEC6CF00009A1
:10DF4200D8B4A6EF6FF0A8EF6FF0AAEF6FF0100E43
:10DF5200556E5550020D8F0EF324F66EFD0EF42011
:10DF6200F76EF86A000EF82209006100D4F312F588
:10DF720009006100D4F313F502D8C9EF6FF0050070
:10DF8200FA6E1250FD6E1350FE6EFF6AFA501200C6
:10DF9200556E12005788DEEF6FF00DEC6CF0070E35
:10DFA20006EF70F0532863EC6CF0030E06EF70F08E
:10DFB2000AEC6CF00A0E06EF70F040C50AF541C596
:10DFC2000BF502D8EEEF6FF00500FA6E3450FD6EDD
:10DFD2003550FE6EFF6AFA5012000C6E0D6A0D503B
:10DFE200000AD8B4F7EF6FF0D9EF6FF00C50010AC6
:10DFF200D8B4D9EF6FF0030AD8B4CEEF6FF0060AA7
:10E00200D8B4D3EF6FF0D9EF6FF01200056E015064
:10E012000210D8B40FEF70F011EF70F02FEF70F024
:10E022000550020D340EF324D96E050EF420DA6E7B
:10E03200610004F4DEF4610008F4DDF40550020D21
:10E04200400EF324D96E050EF420DA6E61000CF452
:10E05200DEF4610010F4DDF447EF70F00550020DBC
:10E06200340EF324D96E050EF420DA6EF20EDE6E53
:10E07200D70EDD6E0550020D400EF324D96E050E4B
:10E08200F420DA6E000EDE6E000EDD6E120001C5A7
:10E0920058F502C559F5610004F4F6F4610008F47C
:10E0A200F7F4F86A08006100D4F35AF5010E01246E
:10E0B200036E000E0220046E61000CF4F6F461009F
:10E0C20010F4F7F4F86A08006100D4F35BF5020E6D
:10E0D2000124036E000E0220046E61000CF4F6F4BB
:10E0E200610010F4F7F4F86A08006100D4F35CF5FB
:10E0F200030E0124036E000E0220046E61000CF474
:10E10200F6F4610010F4F7F4F86A08006100D4F341
:10E112005DF5000E5E6E1200016E010E026E57B6C4
:10E1220095EF70F097EF70F0D2EF70F001C550F5F7
:10E1320057945786FC0E57160F0E556E010E4F6EF2
:10E14200F40E4E6E5788F20E346ED70E356E000EF8
:10E15200406E000E416EF20E366ED70E376E000E16
:10E16200426E000E436EF20E386ED70E396E000EFE
:10E17200446E000E456EF20E3A6ED70E3B6E000EE6
:10E18200466E000E476EF60E3C6ED70E3D6E000ECA
:10E19200486E000E496E1FEC6CF063EC6DF0000EE1
:10E1A200026E025012009FEC6CF00009D8A4DCEF62
:10E1B20070F0DEEF70F0E1EF70F0040E1FEF71F01F
:10E1C2005750030B0009D8B4E9EF70F0EBEF70F091
:10E1D200F7EF70F0010E0E6E5750030B0F6E0E50DC
:10E1E2000F5E57500F18FC0B0F18576E5306D8A02E
:10E1F200540653505410D8B401EF71F003EF71F08C
:10E2020010EF71F010EC6CF0610044F5D9F461008C
:10E2120048F5DAF4DF6E514A522ADEEF70F020EC54
:10E2220071F0106E10EC6CF0610044F5D9F46100ED
:10E2320048F5DAF4DF6E514A522A1050120057881C
:10E2420041EF71F00DEC6CF0080E6DEF71F00DEC1A
:10E252006CF0070E6DEF71F0532863EC6CF0040E56
:10E262006DEF71F0070E5518D8B43AEF71F03CEF2C
:10E2720071F03EEF71F00AEC6CF00F0E6DEF71F081
:10E2820040C50AF541C50BF502D851EF71F0050002
:10E29200FA6E3450FD6E3550FE6EFF6AFA5012006F
:10E2A2000C6E0D6A0D50000AD8B45AEF71F033EFBC
:10E2B20071F00C50010AD8B433EF71F0030AD8B4EC
:10E2C20028EF71F0010AD8B423EF71F0070AD8B42D
:10E2D2002DEF71F033EF71F01200090E336E1E0E46
:10E2E200326EE40EE82EFED7322EFCD7332EFAD74A
:10E2F20000D0AE0E3EEC6DF0D50E3EEC6DF0800E11
:10E302003EEC6DF0A80E3EEC6DF03F0E3EEC6DF073
:10E31200D30E3EEC6DF0000E3EEC6DF0400E3EEC86
:10E322006DF08D0E3EEC6DF0140E3EEC6DF0200E95
:10E332003EEC6DF0000E3EEC6DF0A10E3EEC6DF089
:10E34200C80E3EEC6DF0DA0E3EEC6DF0120E3EECB5
:10E352006DF0810E3EEC6DF0CF0E3EEC6DF0D90EFD
:10E362003EEC6DF0F10E3EEC6DF0DB0E3EEC6DF02E
:10E37200400E3EEC6DF0A40E3EEC6DF0A60E3EECAF
:10E382006DF02E0E3EEC6DF0AF0E3EEC6DF01EEC1D
:10E392006DF05CEC72F01200AAEC6CF00009D8B4DB
:10E3A200D5EF71F0D7EF71F010EF72F0E4EF71F08A
:10E3B20048EC6CF05BEF72F0FDEC6BF05BEF72F02F
:10E3C200000E5BEF72F046C50AF547C50BF502D8A1
:10E3D200F4EF71F00500FA6E3A50FD6E3B50FE6E9E
:10E3E200FF6AFA5012000C6E0D6A0D50000AD8B482
:10E3F200FDEF71F0E1EF71F00C50010AD8B4E1EFDA
:10E4020071F0030AD8B4D9EF71F0010AD8B4DDEF84
:10E4120071F0070AD8B4E1EF71F0E1EF71F0B5ECF9
:10E422006CF00009D8B418EF72F01AEF72F05AEFDC
:10E4320072F05750030B0009D8B422EF72F024EFA8
:10E4420072F030EF72F0010E0C6E5750030B0D6E2E
:10E452000C500D5E57500D18FC0B0D18576E6100D5
:10E4620044F5D9F4610048F5DAF4DF50106E514AF0
:10E47200522A5306D8A0540653505410D8A444EF3D
:10E4820072F046EF72F04EEF72F0CBEC6FF00C6E62
:10E492000C500E6E0F6A52EF72F0000E0F6E030EEA
:10E4A2000E6E0EC511F5105038EC6CF011505BEF8A
:10E4B20072F0030E1200000E1E6E210E3EEC6DF085
:10E4C200000E3EEC6DF07F0E3EEC6DF0220E3EEC47
:10E4D2006DF0000E3EEC6DF0070E3EEC6DF0000E9E
:10E4E200316E000E306E400E1F6E000E3024D96E5B
:10E4F200110E3120DA6EDF50206E010E3024D96EFB
:10E50200110E3120DA6EDF50216E020E3024D96EE8
:10E51200110E3120DA6EDF50226E030E3024D96ED6
:10E52200110E3120DA6EDF50236E040E3024D96EC4
:10E53200110E3120DA6EDF50246E050E3024D96EB2
:10E54200110E3120DA6EDF50256E060E3024D96EA0
:10E55200110E3120DA6EDF50266E070E3024D96E8E
:10E56200110E3120DA6EDF50276E080E3024D96E7C
:10E57200110E3120DA6EDF50286E090E3024D96E6A
:10E58200110E3120DA6EDF50296E0A0E3024D96E58
:10E59200110E3120DA6EDF502A6E0B0E3024D96E46
:10E5A200110E3120DA6EDF502B6E0C0E3024D96E34
:10E5B200110E3120DA6EDF502C6E0D0E3024D96E22
:10E5C200110E3120DA6EDF502D6E0E0E3024D96E10
:10E5D200110E3120DA6EDF502E6E0F0E3024D96EFE
:10E5E200110E3120DA6EDF502F6E1F0E166E050EE1
:10E5F200176E000E196E110E186E3C0ECAEC6EF0FC
:10E602000F0E3024306E000E3120316E304A312A26
:10E61200040E315CD8A010EF73F012EF73F074EFB8
:10E6220072F0120001C50BF502C50CF5055006107B
:10E63200D8A41EEF73F020EF73F022EF73F0DAEF3D
:10E6420073F061002CF4D9F4610030F4DAF4610063
:10E652000CF4DFF405500B24076E06500C20086EF4
:10E66200FF0E0724D96EFF0E0820DA6E61000CF44B
:10E67200DFF4065007E1030E055CD8B043EF73F0F8
:10E6820045EF73F047EF73F0DAEF73F020EE01F02D
:10E692000B50D9260C50DA2261000CF4DFF420EE84
:10E6A20002F00B50D9260C50DA2261000CF4DFF490
:10E6B20005500B24076E06500C20086EFE0E072430
:10E6C200D96EFF0E0820DA6E61000CF4DFF40550FB
:10E6D2000B24076E06500C20086EFD0E0724D96E1F
:10E6E200FF0E0820DA6E61000CF4DFF4065007E139
:10E6F200070E055CD8B080EF73F082EF73F084EF01
:10E7020073F0DAEF73F020EE03F00B50D9260C50C1
:10E71200DA2261000CF4DFF405500B24076E065078
:10E722000C20086EFC0E0724D96EFF0E0820DA6E4C
:10E7320061000CF4DFF4065007E1090E055CD8B065
:10E74200A5EF73F0A7EF73F0A9EF73F0DAEF73F0B0
:10E752000BC507F50CC508F5071E081E074A082A4F
:10E76200030E0714096E0A6A09500B260A500C227E
:10E772000950055E0A50065AFC0E0516FF0E0616D3
:10E78200D1EF73F061002CF4D9F4610030F4DAF4C3
:10E7920061000CF4DFF40506D8A006060B4A0C2A29
:10E7A20005500610D8A4D8EF73F0DAEF73F0C3EF78
:10E7B20073F01200000000000000000000000000E2
:10E7C2000000000000000000000000000000000047
:10E7D2000000000000000000000000000000000037
:10E7E2000000000000000000000000000000000027
:10E7F2000000000000000000000000000000000017
:10E802000000000000000000000000000000000006
:10E8120000000000000000000000000000000000F6
:10E8220000000000000000000000000000000000E6
:10E832000000000000000000000000000000FCFCDE
:10E84200FC0C0C0C0C0C0C0000C0C0C080C0C0C082
:10E85200C0800080C0C0C0C08000000000FEFEFE7C
:10E8620080C0C0C0C0C080000000008080C0C0C0A6
:10E87200C0C08000000000000000000000FCFCFCA2
:10E88200000000000000008080C0C0C0C0C0800046
:10E892000000FEFEFE80C0C0C0C0C08000000000BC
:10E8A2008080C0C0C0C0C08080000000C0C0C080E6
:10E8B200C0C0C00000008080C0C0C0C0C0800000D6
:10E8C200C0C0F8F8F8C0C0C000008080C0C0C0C09E
:10E8D200C08080000000C0C0C080C0C0C040C0C0B6
:10E8E200800000000080C0C0400000000000000066
:10E8F20000000000000000000000000000FFFFFF19
:10E9020080808080800070F9FD9C8C8CCCFFFFFFA2
:10E912000000FFFFFFC1808080C1FFFF3E00003E7C
:10E92200FFFFC1808080C1FFFF3E0000FFFFFF03A9
:10E93200010101000070F9FD9C8C8CCCFFFFFF00EF
:10E942000000FFFFFF808080003EFFFFC1808080CB
:10E95200C1FFFF3E0000FFFFFF0301010100030FA3
:10E962003FFEF8C0FCFF1F03000000000000000093
:10E972000000000000000000000000000001010192
:10E982000101010101000000010101010001010179
:10E99200000001010100010101010000000000006E
:10E9A200000001010101010000000000010101005D
:10E9B200000000000000000101010100010101004E
:10E9C200000000010101010100000000010101013C
:10E9D2000100000000000101010000000000000031
:10E9E200181D1F0F030000000000000000000000BF
:10E9F2000000000000000000000000000000000015
:10EA02000000000000000000000000000000000004
:10EA120000000000000000000000000000000000F4
:10EA220000000000000000000000000000000000E4
:10EA320000000000000000000000000000000000D4
:10EA420000000000000000000000000000000000C4
:10EA520000000000000000000000000000000000B4
:10EA620000000000000000000000000000000000A4
:10EA72000000000000000000000000000000000094
:10EA82000000000000000000000000000000000084
:10EA92000000000000000000000000000000000074
:10EAA2000000000000000000000000000000000064
:10EAB2000000000000000000000000000000000054
:10EAC2000000000000000000000000000000000044
:10EAD2000000000000000000000000000000000034
:10EAE2000000000000000000000000000000000024
:10EAF2000000000000000000000000000000000014
:10EB02000000000000000000000000000000000003
:10EB120000000000000000000000000000000000F3
:10EB220000000000000000000000000000000000E3
:10EB320000000000000000000000000000000000D3
:10EB420000000000000000000000000000000000C3
:10EB520000000000000000000000000000000000B3
:10EB620000000000000000000000000000000000A3
:10EB72000000000000000000000000000000000093
:10EB82000000000000000000000000000000000083
:10EB92000000000000000000000000000000000073
:10EBA2000000000000000000000000000000000063
:10EBB20000000000001010205F00000000000000B4
:10EBC2000000000000000000000000000000000043
:10EBD20000000000000000000000000000F8FCFC43
:10EBE200FCF8000000000000000000000000737349
:10EBF200730000000000000000000000001E3E3E06
:10EC02000000003E3E1E0000000000000000000068
:10EC120000000000000000000000303030FEFE3036
:10EC2200303030FEFE30303000000C0C0C7F7F0C98
:10EC32000C0C0C7F7F0C0C0C00000000F0F898FE0E
:10EC42009898FE9898180000000000001819197F83
:10EC520019197F191F0F0000000000000038383812
:10EC620080C0E0703800000000000000001C0E07A9
:10EC720003011C1C1C0000000000000038FCC4C47E
:10EC8200FC38000000800000000000001E3F21212F
:10EC9200333F1E1E372300000000000000203C3CD2
:10ECA2001C00000000000000000000000000000046
:10ECB20000000000000000000000000000C0E0F0C2
:10ECC200381C0C0404000000000000000003070FC1
:10ECD2001C38302020000000000000000004040C5A
:10ECE2001C38F0E0C00000000000000000202030CE
:10ECF200381C0F0703000000000000808890E0E04D
:10ED0200FCFCE0E090888000000000011109070788
:10ED12003F3F0707091101000000000000808080CA
:10ED2200F0F080808000000000000000000101017E
:10ED32000F0F0101010000000000000000000000B0
:10ED42000000000000000000000000000040787891
:10ED52003800000000000000000000008080808079
:10ED6200808080808080000000000000010101019D
:10ED7200010101010101000000000000000000008B
:10ED82000000000000000000000000000000383811
:10ED92003800000000000000000000000000000039
:10EDA200000080C0E070381C000000002030381CD9
:10EDB2000E0703010000000000000000F8FCFC0444
:10EDC20084E474FCFCF80000000000001F3F3F2EAA
:10EDD2002721203F3F1F000000000000606060F01C
:10EDE200FCFC000000000000000000002020203F8A
:10EDF2003F3F20202000000000000000181C1C04DF
:10EE02000484CCFC783000000000000030383C2E36
:10EE1200272321383838000000000000181C1C8409
:10EE22008484CC7C7830000000000000183838213F
:10EE32002121333E1E0C00000000000080C0603023
:10EE420018FCFCFC00000000000000000303032388
:10EE5200233F3F3F2323000000000000FCFCFC8412
:10EE620084848484040400000000000019393921DC
:10EE72002121333F1F0E000000000000E0F0F89C4B
:10EE82008C84848480000000000000001F3F3F212A
:10EE92002121213F3F1F0000000000003C3C3C04B8
:10EEA20004040484FCFC7C00000000000000003824
:10EEB2003C3E07030100000000000000787CFCC417
:10EEC200C48484FC7C780000000000001E3E3F21C8
:10EED2002123233F3E1E000000000000F8FCFC84BA
:10EEE200848484FCFCF80000000000000001212161
:10EEF2002131391F0F0700000000000000000070E0
:10EF02007070000000000000000000000000000E11
:10EF12000E0E000000000000000000000000007063
:10EF22007070000000000000000000000000101ED1
:10EF32001E0E0000000000000000000080C0E07013
:10EF4200381C0E0602000000000000000103070E3C
:10EF52001C3870604000000000000060606060606B
:10EF620060606060606060000000000606060606E1
:10EF720006060606060606000000000002060E1C33
:10EF82003870E0C08000000000000000406070386F
:10EF92001C0E07030100000000000000181C0C0EEC
:10EFA2000686CEFC7C380000000000000000000055
:10EFB200737373000000000000000000FCFEFE02FC
:10EFC20002C2C2C2FEFEFC00000000003F3F7F60A2
:10EFD200606363636343030000000000E0F0F81C19
:10EFE2000C0C1CF8F0E00000000000003F3F3F0264
:10EFF2000202023F3F3F00000000000004FCFCFC54
:10F00200848484FCFC78000000000000203F3F3F25
:10F012002121213F3F1E000000000000F0F8FC0CFF
:10F022000404041C1C180000000000000F1F3F30E5
:10F0320020202038381800000000000004FCFCFCEE
:10F0420004040CFCF8F0000000000000203F3F3FE9
:10F052002020303F1F0F00000000000004FCFCFCD9
:10F06200848484C4CC1C000000000000203F3F3F89
:10F0720021212123333800000000000004FCFCFCA5
:10F08200848484C4CC1C000000000000203F3F3F69
:10F09200210101030300000000000000F0F8FC0C55
:10F0A2000404043C3C380000000000000F1F3F3005
:10F0B2002022223E3E3E000000000000FCFCFC80BC
:10F0C2008080FCFCFC000000000000003F3F3F018C
:10F0D20001013F3F3F00000000000000000404FC6B
:10F0E200FCFC040400000000000000000020203F9F
:10F0F2003F3F202000000000000000000000000050
:10F102000404FCFCFC0404000000001E1E3E20203F
:10F1120020203F3F1F0000000000000004FCFCFC18
:10F12200C0E0703C1C0C000000000000203F3F3F8C
:10F1320003070E3C383000000000000004FCFCFC19
:10F14200040000000000000000000000203F3F3FDC
:10F1520020202030383C000000000000FCFCFC783D
:10F16200F0E0F078FCFCFC00000000003F3F3F00B4
:10F17200000100003F3F3F0000000000FCFCFC706B
:10F18200E0C08000FCFCFC00000000003F3F3F00AC
:10F19200000103073F3F3F0000000000E0F0F81CC1
:10F1A2000C0C0C1CF8F0E00000000000070F1F38E8
:10F1B200303030381F0F07000000000004FCFCFC58
:10F1C200848484FCFC78000000000000203F3F3F64
:10F1D200210101010100000000000000E0F8F81C1C
:10F1E2000C040C1CF8F8E00000000000071F1F18B8
:10F1F200185C5E7E7F7F47000000000004FCFCFC80
:10F20200848484FCFC78000000000000203F3F3F23
:10F212000101033F3F3C00000000000078FCFC8439
:10F22200848484BC3C380000000000001C3C3D216A
:10F232002121213F3F1E0000000000001C0C04049D
:10F24200FCFCFC04040C1C00000000000000202058
:10F252003F3F3F202000000000000000FCFCFC00BB
:10F262000000FCFCFC000000000000001F3F3F20EB
:10F2720020203F3F1F00000000000000FCFCFC00BB
:10F282000000FCFCFC00000000000000070F1F381B
:10F2920030381F0F0700000000000000FCFCFC00DB
:10F2A20000800000FCFCFC0000000000030F3F3C5B
:10F2B2003C0F3C3C3F0F0300000000001C3C7CE084
:10F2C200C0E07C3C1C00000000000000383C3E070F
:10F2D20003073E3C38000000000000007CFCFC807C
:10F2E2000080FCFC7C000000000000000020213FA8
:10F2F2003F3F212000000000000000003C1C0C04E5
:10F3020084C4E47C3C1C000000000000383C3E2722
:10F3120023212030383C0000000000000000FCFCEB
:10F32200FC040404040000000000000000003F3F51
:10F332003F20202020000000000000001C3870E068
:10F34200C08000000000000000000000000000007B
:10F352000103070E1C1830202000000000000404E6
:10F362000404FCFCFC00000000000000000020205F
:10F3720020203F3F3F000000000000002030381CEA
:10F382000E0E1C38302000000000000000000000BB
:10F39200000000000000000000000000000000006B
:10F3A20000000000000000000000C0C0C0C0C0C0DB
:10F3B200C0C0C0C0C0C0C0C0C00000000C0C3C3007
:10F3C200300000000000000000000000000000000B
:10F3D200000000000000000000000000004040406B
:10F3E2004040C0C080000000000000001C3E3E22E1
:10F3F20022223F1F3F2000000000000004FCFCFC12
:10F40200404040C0C080000000000000203F1F3F7D
:10F412002020203F3F1F00000000000080C0C040AD
:10F422004040C0C080000000000000001F3F3F209D
:10F4320020203939190000000000000080C0C040BF
:10F442004044FCFCFC040000000000001F3F3F2081
:10F4520020203F1F3F2000000000000080C0C0406D
:10F462004040C0C080000000000000001F3F3F225B
:10F4720022223B3B1B000000000000008080F8FCC1
:10F48200FC849C9C180000000000000021213F3FEA
:10F492003F212101000000000000000080C0C040A8
:10F4A2004040C080C04000000000000047CFDF980D
:10F4B2009898FFFF7F0000000000000004FCFCFCA5
:10F4C200804040C0C080000000000000203F3F3F5D
:10F4D2000100003F3F3F00000000000000404040AC
:10F4E200DCDCDC0000000000000000000020202026
:10F4F2003F3F3F20202000000000000000000040AD
:10F502004040DCDCDC000000000000002060E08005
:10F5120080C0FFFF7F0000000000000004FCFCFC34
:10F52200000080C0C040000000000000203F3F3FBC
:10F5320002070F3D38300000000000000004040400
:10F54200FCFCFC0000000000000000000020202065
:10F552003F3F3F202020000000000000C0C0C0400C
:10F5620040C04040C0C08000000000003F3F3F005C
:10F57200003F00003F3F3F0000000000C0C0C0400D
:10F582004040C0C080000000000000003F3F3F003C
:10F5920000003F3F3F0000000000000080C0C0406C
:10F5A2004040C0C080000000000000001F3F3F201C
:10F5B20020203F3F1F0000000000000040C080C02C
:10F5C200404040C0C08000000000000080FFFFFFFC
:10F5D2009010101F1F0F000000000080C0C04040AC
:10F5E20040C080C0400000000000000F1F1F10102C
:10F5F20090FFFFFF800000000000000040C0C0C07C
:10F6020080C0C0C0C080000000000000203F3F3F1B
:10F6120021000001010100000000000080C0C04084
:10F62200404040C08000000000000000193B23263B
:10F6320026263C3D19000000000000004040E0F09A
:10F64200F8404040400000000000000000001F3F62
:10F652003F2038381800000000000000C0C0C00081
:10F662000000C0C0C0000000000000001F3F3F209B
:10F6720020203F1F3F20000000000000C0C0C0004B
:10F682000000C0C0C000000000000000070F1F38CB
:10F6920030381F0F0700000000000000C0C0C0008B
:10F6A20000000000C0C0C00000000000070F3F388B
:10F6B200380E38383F0F070000000000C0C0C000FD
:10F6C20000C0C0C0000000000000000030393F0F41
:10F6D2000F3F3930000000000000000000C0C0C031
:10F6E200000000C0C0C000000000000080878F9FA3
:10F6F200D8F8783F0F07000000000000C0C040406B
:10F7020040C0C0C0000000000000000031383C2EA4
:10F712002723313800000000000000008080C078FC
:10F722007C3C040404040000000000000101031EEC
:10F732003E3C2020202000000000000000000000CD
:10F74200FEFEFE00000000000000000000000000BD
:10F752007F7F7F000000000000000000040404041A
:10F762003C7C78C080800000000000002020202027
:10F772003C3E1E0301010000000000383C3C040C2A
:10F782001C3830203C3C1C0000000000000000003F
:10F792000000000000000000000810205F000000D0
:10F7A2000000000000000000000000000000000057
:10F7B200F800000000000000333000000000100CD0
:10F7C20006100C0600000000000000000040C07897
:10F7D20040C0784000043F04043F040400007088E5
:10F7E200FC08300000001820FF211E0000F008F085
:10F7F20000E018000000211C031E211E0000F0087A
:10F8020088700000001E2123241927211010160ED3
:10F8120000000000000000000000000000000000E6
:10F82200E018040200000000071820400000020453
:10F8320018E000000000402018070000004040804F
:10F84200F0804040000202010F01020200000000AD
:10F85200F0000000000101011F0101010000000091
:10F86200000000000080B0700000000000000000F6
:10F87200000000000000010101010101010000007F
:10F882000000000000003030000000000000000016
:10F892000080601804006018060100000000E010FB
:10F8A200080810E000000F102020100F00001010B8
:10F8B200F8000000000020203F2020000000700817
:10F8C2000808887000003028242221300000300807
:10F8D20088884830000018202020110E000000C047
:10F8E2002010F8000000070424243F240000F80838
:10F8F20088880808000019212020110E0000E0105D
:10F902008888180000000F112020110E000038080E
:10F9120008C83808000000003F000000000070889E
:10F922000808887000001C222121221C0000E0101F
:10F93200080810E0000000312222110F0000000030
:10F94200C0C00000000000003030000000000000D5
:10F9520080000000000000806000000000000080C5
:10F96200402010080000010204081020004040401E
:10F972004040404000040404040404040000081051
:10F98200204080000000201008040201000070489E
:10F99200080808F0000000003036010000C030C83E
:10F9A20028E810E0000718272423140B000000C0E9
:10F9B20038E0000000203C23020227382008F888A3
:10F9C2008888700000203F202020110E00C03008DF
:10F9D2000808083800071820202010080008F80836
:10F9E200080810E000203F202020100F0008F888AF
:10F9F20088E8081000203F20202320180008F888FB
:10FA020088E8081000203F200003000000C03008F2
:10FA1200080838000007182020221E020008F808F3
:10FA2200000008F808203F210101213F20000808BA
:10FA3200F8080800000020203F20200000000008F5
:10FA420008F8080800C08080807F00000008F8885D
:10FA5200C028180800203F20012638200008F80896
:10FA62000000000000203F20202020300008F8F88D
:10FA720000F8F80800203F003F003F200008F8305F
:10FA8200C00008F808203F200007183F00E01008D7
:10FA9200080810E0000F10202020100F0008F808BE
:10FAA200080808F000203F210101010000E01008D1
:10FAB200080810E0000F18242438504F0008F88876
:10FAC2008888887000203F2000030C302000708856
:10FAD20008080838000038202121221C00180808D4
:10FAE200F8080818000000203F2000000008F8086D
:10FAF200000008F808001F202020201F0008788836
:10FB02000000C83808000007380E010000F808009D
:10FB1200F80008F800033C0700073C0300081868D7
:10FB2200808068180820302C03032C30200838C845
:10FB320000C83808000000203F200000001008081C
:10FB420008C83808002038262120201800000000AC
:10FB5200FE020202000000007F40404000000C3024
:10FB6200C000000000000000010638C000000202D0
:10FB720002FE000000004040407F00000000000440
:10FB82000202020400000000000000000000000069
:10FB9200000000000080808080808080800002025F
:10FBA20004000000000000000000000000000080CF
:10FBB20080808000000019242222223F2008F800C1
:10FBC2008080000000003F112020110E0000000084
:10FBD2008080800000000E11202020110000000013
:10FBE200808088F800000E112020103F2000008045
:10FBF2008080800000001F222222221300008080C9
:10FC0200F0888888180020203F2020000000008013
:10FC12008080808000006B94949493600008F800C8
:10FC22008080800000203F210000203F200080983B
:10FC320098000000000020203F202000000000006B
:10FC4200809898000000C08080807F000008F80043
:10FC52000080808000203F24022D30200000080810
:10FC6200F8000000000020203F202000008080805B
:10FC72008080808000203F20003F20003F80800065
:10FC82008080800000203F210000203F2000008073
:10FC92008080800000001F202020201F0080800024
:10FCA200808000000080FFA12020110E00000000D3
:10FCB2008080808000000E112020A0FF8080808044
:10FCC200008080800020203F212000010000008071
:10FCD2008080808000003324242424190000808046
:10FCE200E0808000000000001F20200000808000D3
:10FCF2000000808000001F202020103F2080808094
:10FD0200000080808000010E300806010080800023
:10FD120080008080800F300C030C300F0000808048
:10FD220000808080000020312E0E312000808080F3
:10FD3200000080808080818E701806010000808023
:10FD420080808080000021302C22213000000000C1
:10FD520000807C020200000000003F4040000000E2
:10FD620000FF00000000000000FF0000000002028F
:10FD72007C800000000040403F00000000000601BF
:10FD8200010202040400000000000000007AD840D2
:10FD9200DBE8D89AE3A8E196DF40E290D8FAD7FEF2
:10FDA200D79EDA4ED846D89CD856D8AAD850DEB6B6
:10FDB200DEB8D80608205F00000000000000000046
:10FDC2002F000000000700070000147F147F1400BA
:10FDD200242A7F2A1200231308646200364955221E
:10FDE2005000000503000000001C224100000041F9
:10FDF200221C000014083E08140008083E080800EF
:10FE02000000A06000000808080808000060600008
:10FE120000002010080402003E5149453E00004205
:10FE22007F4000004261514946002141454B31006B
:10FE32001814127F10002745454539003C4A4949AC
:10FE42003000017109050300364949493600064967
:10FE520049291E0000363600000000563600000018
:10FE62000814224100001414141414000041221436
:10FE72000800020151090600324959513E007C1224
:10FE820011127C007F49494936003E41414122001E
:10FE92007F4141221C007F49494941007F090909EC
:10FEA20001003E4149497A007F0808087F0000416D
:10FEB2007F4100002040413F01007F0814224100A1
:10FEC2007F40404040007F020C027F007F04081008
:10FED2007F003E4141413E007F09090906003E4143
:10FEE20051215E007F0919294600464949493100DE
:10FEF20001017F0101003F4040403F001F204020A0
:10FF02001F003F4038403F00631408146300070895
:10FF120070080700615149454300007F41410000DC
:10FF2200552A552A55000041417F00000402010272
:10FF32000400404040404000000102040000205400
:10FF4200545478007F4844443800384444442000E4
:10FF5200384444487F00385454541800087E09013C
:10FF6200020018A4A4A47C007F08040478000044C2
:10FF72007D4000004080847D00007F102844000006
:10FF820000417F4000007C04180478007C080404CF
:10FF92007800384444443800FC24242418001824EF
:10FFA2002418FC007C08040408004854545420001F
:10FFB200043F444020003C4040207C001C20402064
:10FFC2001C003C4030403C004428102844001CA047
:10FFD200A0A07C004464544C440000087700000058
:10FFE20000007F00000000770800000010081008E1
:09FFF2000014141414141400008E
:04FFFC000DEF6EF0A7
:020000040020DA
:10000000FF0FFF0FFF0FFF0FFF0FFF0FFF0FFF0F80
:10001000FF0FFF0FFF0FFF0FFF0FFF0FFF0FFF0F70
:10002000FF0FFF0FFF0FFF0FFF0FFF0FFF0FFF0F60
:10003000FF0FFF0FFF0FFF0FFF0FFF0FFF0FFF0F50
:020000040030CA
:0A0000008CFFF7FF9FFFFFFFFFFFDB
:00000001FF
